:100AE700020F000A0211000502130000C181C100B4
:0F0AF70002080005020A0000020C0014010E3074
:0B0B2C00120B37120B3D120B2080FE55
:060B370075A887D2882298
:040B3D0075B8012264
:0C0B2000758901758AF0758CD8D28C2282
:03000B00020800E8
:10080000C0E0C0F0C083C082C0D075D000C000C0BE
:1008100001C002C003C004C005C006C007758AF04D
:10082000758CD8E51015107002150FD3E5109400E3
:10083000E50F648094805079750F0075100A3000C0
:1008400033E5144513701BE51245117005120B07B3
:100850008018E51215127002151175130075140930
:100860008008E514151470021513AD14AC13AF1203
:10087000AE118028300108E4FDFC7F05FE801DE5F7
:100880000D150D7002150CC3E50D940AE50C64807E
:100890009480400DAD0BAC0AAF09AE081208CC80B5
:1008A00010E50D450C7005F50C750D14AF0E120A10
:1008B000BDD007D006D005D004D003D002D001D0DF
:0C08C00000D0D0D082D083D0F0D0E03245
:1008CC00EE705BEFB40A0050559008DCF8282873E2
:1008DC000208FA0208FF02090402090902090E02C1
:1008EC00091302091802091D020922020927759031
:1008FC0040802B75907980267590248021759030DE
:10090C00801C75901980177590128012759002805A
:10091C000D7590788008E4F5908003759010EC705C
:10092C0052EDB40A00504C90093AF8282873020989
:10093C005802095C02096002096402096802096C28
:10094C0002097002097402097802097C75A0C022A0
:10095C0075A0F92275A0A42275A0B02275A09922C9
:10096C0075A0922275A0822275A0F82275A0802213
:04097C0075A09022B0
:100B0700C200750E30E4F508F509F50AF50BAD0BD3
:090B1700AC0AAF09AE080208CCDB
:100ABD0075903FEF24D0601E24EE600E14600F146D
:100ACD0060102403701375A0882275A0832275A071
:0A0ADD00C62275A0A12275A0BF2259
:03000300020A0CE2
:100A0C00C0E0C083C082C0D075D000C000C004C09C
:100A1C0005C006C007200019200116750F007510BF
:100A2C000AD201751100751205751300751400803A
:100A3C003620000F30010C750F0075100AD200C261
:100A4C00018024300021750F0075100A7511007596
:100A5C001205751300751400AD14AC13AF12AE1162
:100A6C001208CCD201C200D007D006D005D004D0D9
:0A0A7C0000D0D0D082D083D0E03249
:03001300020A8658
:100A8600300033C20085110885120985130A8514C2
:100A96000B750C00750D1420B404750E413220B58B
:100AA60004750E423220B604750E433220B7047523
:070AB6000E4432750E3032D0
:0300000002098072
:0C098000787FE4F6D8FD7581200209C7DD
:10098C00020B2CE493A3F8E493A34003F68001F24A
:10099C0008DFF48029E493A3F85407240CC8C3336C
:1009AC00C4540F4420C8834004F456800146F6DF3B
:1009BC00E4800B0102040810204080900AE7E47EDA
:1009CC00019360BCA3FF543F30E509541FFEE49330
:1009DC00A360010ECF54C025E060A840B8E493A3F7
:1009EC00FAE493A3F8E493A3C8C582C8CAC583CA22
:1009FC00F0A3C8C582C8CAC583CADFE9DEE780BEDA
:010B060000EE
:00000001FF
